{
  "address": "0x6a91d9822679f1a895dae24b0610d6f8ba485196",
  "abi": [
    {
      "inputs": [
        {
          "internalType": "address",
          "name": "_admin",
          "type": "address"
        }
      ],
      "stateMutability": "nonpayable",
      "type": "constructor"
    },
    {
      "anonymous": false,
      "inputs": [
        {
          "indexed": true,
          "internalType": "address",
          "name": "from",
          "type": "address"
        },
        {
          "indexed": false,
          "internalType": "uint256",
          "name": "value",
          "type": "uint256"
        }
      ],
      "name": "FeesClaimed",
      "type": "event"
    },
    {
      "anonymous": false,
      "inputs": [
        {
          "indexed": true,
          "internalType": "address",
          "name": "from",
          "type": "address"
        },
        {
          "indexed": false,
          "internalType": "uint256",
          "name": "value",
          "type": "uint256"
        }
      ],
      "name": "PaidFees",
      "type": "event"
    },
    {
      "anonymous": false,
      "inputs": [
        {
          "indexed": true,
          "internalType": "address",
          "name": "from",
          "type": "address"
        },
        {
          "indexed": false,
          "internalType": "uint256",
          "name": "value",
          "type": "uint256"
        }
      ],
      "name": "Received",
      "type": "event"
    },
    {
      "anonymous": false,
      "inputs": [
        {
          "indexed": true,
          "internalType": "bytes32",
          "name": "role",
          "type": "bytes32"
        },
        {
          "indexed": true,
          "internalType": "bytes32",
          "name": "previousAdminRole",
          "type": "bytes32"
        },
        {
          "indexed": true,
          "internalType": "bytes32",
          "name": "newAdminRole",
          "type": "bytes32"
        }
      ],
      "name": "RoleAdminChanged",
      "type": "event"
    },
    {
      "anonymous": false,
      "inputs": [
        {
          "indexed": true,
          "internalType": "bytes32",
          "name": "role",
          "type": "bytes32"
        },
        {
          "indexed": true,
          "internalType": "address",
          "name": "account",
          "type": "address"
        },
        {
          "indexed": true,
          "internalType": "address",
          "name": "sender",
          "type": "address"
        }
      ],
      "name": "RoleGranted",
      "type": "event"
    },
    {
      "anonymous": false,
      "inputs": [
        {
          "indexed": true,
          "internalType": "bytes32",
          "name": "role",
          "type": "bytes32"
        },
        {
          "indexed": true,
          "internalType": "address",
          "name": "account",
          "type": "address"
        },
        {
          "indexed": true,
          "internalType": "address",
          "name": "sender",
          "type": "address"
        }
      ],
      "name": "RoleRevoked",
      "type": "event"
    },
    {
      "inputs": [],
      "name": "DEFAULT_ADMIN_ROLE",
      "outputs": [
        {
          "internalType": "bytes32",
          "name": "",
          "type": "bytes32"
        }
      ],
      "stateMutability": "view",
      "type": "function"
    },
    {
      "inputs": [],
      "name": "HOT_WALLET",
      "outputs": [
        {
          "internalType": "bytes32",
          "name": "",
          "type": "bytes32"
        }
      ],
      "stateMutability": "view",
      "type": "function"
    },
    {
      "inputs": [],
      "name": "HOT_WALLET_ADMIN",
      "outputs": [
        {
          "internalType": "bytes32",
          "name": "",
          "type": "bytes32"
        }
      ],
      "stateMutability": "view",
      "type": "function"
    },
    {
      "inputs": [],
      "name": "claimFees",
      "outputs": [],
      "stateMutability": "nonpayable",
      "type": "function"
    },
    {
      "inputs": [],
      "name": "ethRequiredForHotWalletTopup",
      "outputs": [
        {
          "internalType": "uint256",
          "name": "totalETH",
          "type": "uint256"
        }
      ],
      "stateMutability": "view",
      "type": "function"
    },
    {
      "inputs": [
        {
          "internalType": "bytes32",
          "name": "role",
          "type": "bytes32"
        }
      ],
      "name": "getRoleAdmin",
      "outputs": [
        {
          "internalType": "bytes32",
          "name": "",
          "type": "bytes32"
        }
      ],
      "stateMutability": "view",
      "type": "function"
    },
    {
      "inputs": [
        {
          "internalType": "bytes32",
          "name": "role",
          "type": "bytes32"
        },
        {
          "internalType": "uint256",
          "name": "index",
          "type": "uint256"
        }
      ],
      "name": "getRoleMember",
      "outputs": [
        {
          "internalType": "address",
          "name": "",
          "type": "address"
        }
      ],
      "stateMutability": "view",
      "type": "function"
    },
    {
      "inputs": [
        {
          "internalType": "bytes32",
          "name": "role",
          "type": "bytes32"
        }
      ],
      "name": "getRoleMemberCount",
      "outputs": [
        {
          "internalType": "uint256",
          "name": "",
          "type": "uint256"
        }
      ],
      "stateMutability": "view",
      "type": "function"
    },
    {
      "inputs": [
        {
          "internalType": "bytes32",
          "name": "role",
          "type": "bytes32"
        },
        {
          "internalType": "address",
          "name": "account",
          "type": "address"
        }
      ],
      "name": "grantRole",
      "outputs": [],
      "stateMutability": "nonpayable",
      "type": "function"
    },
    {
      "inputs": [
        {
          "internalType": "bytes32",
          "name": "role",
          "type": "bytes32"
        },
        {
          "internalType": "address",
          "name": "account",
          "type": "address"
        }
      ],
      "name": "hasRole",
      "outputs": [
        {
          "internalType": "bool",
          "name": "",
          "type": "bool"
        }
      ],
      "stateMutability": "view",
      "type": "function"
    },
    {
      "inputs": [
        {
          "internalType": "address",
          "name": "_sender",
          "type": "address"
        },
        {
          "internalType": "uint256",
          "name": "_amount",
          "type": "uint256"
        }
      ],
      "name": "paidFees",
      "outputs": [],
      "stateMutability": "payable",
      "type": "function"
    },
    {
      "inputs": [
        {
          "internalType": "bytes32",
          "name": "role",
          "type": "bytes32"
        },
        {
          "internalType": "address",
          "name": "account",
          "type": "address"
        }
      ],
      "name": "renounceRole",
      "outputs": [],
      "stateMutability": "nonpayable",
      "type": "function"
    },
    {
      "inputs": [
        {
          "internalType": "bytes32",
          "name": "role",
          "type": "bytes32"
        },
        {
          "internalType": "address",
          "name": "account",
          "type": "address"
        }
      ],
      "name": "revokeRole",
      "outputs": [],
      "stateMutability": "nonpayable",
      "type": "function"
    },
    {
      "inputs": [
        {
          "internalType": "uint256",
          "name": "_walletBalanceLimit",
          "type": "uint256"
        }
      ],
      "name": "setWalletBalanceLimit",
      "outputs": [],
      "stateMutability": "nonpayable",
      "type": "function"
    },
    {
      "inputs": [
        {
          "internalType": "bytes4",
          "name": "interfaceId",
          "type": "bytes4"
        }
      ],
      "name": "supportsInterface",
      "outputs": [
        {
          "internalType": "bool",
          "name": "",
          "type": "bool"
        }
      ],
      "stateMutability": "view",
      "type": "function"
    },
    {
      "inputs": [],
      "name": "topUpHotWallets",
      "outputs": [],
      "stateMutability": "payable",
      "type": "function"
    },
    {
      "inputs": [],
      "name": "walletBalanceLimit",
      "outputs": [
        {
          "internalType": "uint256",
          "name": "",
          "type": "uint256"
        }
      ],
      "stateMutability": "view",
      "type": "function"
    },
    {
      "stateMutability": "payable",
      "type": "receive"
    }
  ],
  "transactionHash": "0x50fbb651f006029e848139540b37f0c2c7eeafe7b24a92aa53460eb6caaed8ca",
  "args": [
    "0x489Bf38DB5E8aF99E82906B89D9164220fc784Ac"
  ],
  "numDeployments": 1,
  "solcInputHash": "214890cbb4e4ad028405895a0fdeae8d",
  "bytecode": "0x60806040523480156200001157600080fd5b50604051620013a5380380620013a583398101604081905262000034916200024e565b620000416000826200009e565b6200005c60008051602062001385833981519152826200009e565b620000977fe5c92be55b27883957c9d397f08bf6875103f260066a79776c9878c709b90fe560008051602062001385833981519152620000ae565b5062000280565b620000aa8282620000f9565b5050565b600082815260208190526040808220600101805490849055905190918391839186917fbd79b86ffe0ab8e8776151514217cd7cacd52c909f66475c3af44e129f0b00ff9190a4505050565b6200011082826200013c60201b620008701760201c565b6000828152600160209081526040909120620001379183906200090e620001dc821b17901c565b505050565b6000828152602081815260408083206001600160a01b038516845290915290205460ff16620000aa576000828152602081815260408083206001600160a01b03851684529091529020805460ff19166001179055620001983390565b6001600160a01b0316816001600160a01b0316837f2f8788117e7eff1d82e926ec794901d17c78024a50270940304540a733656f0d60405160405180910390a45050565b6000620001f3836001600160a01b038416620001fc565b90505b92915050565b60008181526001830160205260408120546200024557508154600181810184556000848152602080822090930184905584548482528286019093526040902091909155620001f6565b506000620001f6565b6000602082840312156200026157600080fd5b81516001600160a01b03811681146200027957600080fd5b9392505050565b6110f580620002906000396000f3fe6080604052600436106101125760003560e01c80638817f6f1116100a5578063a217fddf11610074578063d294f09311610059578063d294f09314610367578063d547741f1461037c578063e4ef93b81461039c57600080fd5b8063a217fddf14610332578063ca15c8731461034757600080fd5b80638817f6f1146102985780638cfc260d146102ae5780639010d07c146102b657806391d14854146102ee57600080fd5b80632f2ff15d116100e15780632f2ff15d1461020f57806336568abe1461022f5780633a08aab01461024f5780635f0388471461028357600080fd5b806301ffc9a714610153578063180e222d14610188578063248a9ca31461019d57806328e70c3e146101db57600080fd5b3661014e5760405134815233907f88a5966d370b9919b20f3e2c13ff65706f196a4e32cc2c12bf57088f885258749060200160405180910390a2005b600080fd5b34801561015f57600080fd5b5061017361016e366004610e43565b6103bc565b60405190151581526020015b60405180910390f35b61019b610196366004610e89565b610400565b005b3480156101a957600080fd5b506101cd6101b8366004610eb3565b60009081526020819052604090206001015490565b60405190815260200161017f565b3480156101e757600080fd5b506101cd7f010f49dc72a845b76d238e8719fe5704101e1d62cad5f18a9887ced2c4fcc43d81565b34801561021b57600080fd5b5061019b61022a366004610ecc565b61049c565b34801561023b57600080fd5b5061019b61024a366004610ecc565b6104c7565b34801561025b57600080fd5b506101cd7fe5c92be55b27883957c9d397f08bf6875103f260066a79776c9878c709b90fe581565b34801561028f57600080fd5b506101cd610553565b3480156102a457600080fd5b506101cd60025481565b61019b61060b565b3480156102c257600080fd5b506102d66102d1366004610ef8565b610794565b6040516001600160a01b03909116815260200161017f565b3480156102fa57600080fd5b50610173610309366004610ecc565b6000918252602082815260408084206001600160a01b0393909316845291905290205460ff1690565b34801561033e57600080fd5b506101cd600081565b34801561035357600080fd5b506101cd610362366004610eb3565b6107b3565b34801561037357600080fd5b5061019b6107ca565b34801561038857600080fd5b5061019b610397366004610ecc565b610838565b3480156103a857600080fd5b5061019b6103b7366004610eb3565b61085e565b60006001600160e01b031982167f5a05180f0000000000000000000000000000000000000000000000000000000014806103fa57506103fa82610923565b92915050565b803410156104555760405162461bcd60e51b815260206004820152601360248201527f4e6f7420656e6f756768204554482073656e740000000000000000000000000060448201526064015b60405180910390fd5b816001600160a01b03167f52e9b61fb2517a3b8014966f3de98e7485159cdb95f21696e150f50171c652358260405161049091815260200190565b60405180910390a25050565b6000828152602081905260409020600101546104b8813361098a565b6104c28383610a08565b505050565b6001600160a01b03811633146105455760405162461bcd60e51b815260206004820152602f60248201527f416363657373436f6e74726f6c3a2063616e206f6e6c792072656e6f756e636560448201527f20726f6c657320666f722073656c660000000000000000000000000000000000606482015260840161044c565b61054f8282610a2a565b5050565b60008061057f7fe5c92be55b27883957c9d397f08bf6875103f260066a79776c9878c709b90fe56107b3565b905060005b818110156106065760006105b87fe5c92be55b27883957c9d397f08bf6875103f260066a79776c9878c709b90fe583610794565b6002549091506001600160a01b03821631908110156105f1576000816002546105e19190610f30565b90506105ed8187610f43565b9550505b505080806105fe90610f56565b915050610584565b505090565b6000610617813361098a565b60006106427fe5c92be55b27883957c9d397f08bf6875103f260066a79776c9878c709b90fe56107b3565b9050600081116106945760405162461bcd60e51b815260206004820152601660248201527f4e6f20486f742057616c6c65747320746f2066756e6400000000000000000000604482015260640161044c565b60005b818110156104c25760006106cb7fe5c92be55b27883957c9d397f08bf6875103f260066a79776c9878c709b90fe583610794565b6002549091506001600160a01b038216319081101561077f576000816002546106f49190610f30565b9050804710156107465760405162461bcd60e51b815260206004820181905260248201527f4e6f7420656e6f7567682045544820746f20746f702d75702077616c6c657473604482015260640161044c565b6040516001600160a01b0384169082156108fc029083906000818181858888f1935050505015801561077c573d6000803e3d6000fd5b50505b5050808061078c90610f56565b915050610697565b60008281526001602052604081206107ac9083610a4c565b9392505050565b60008181526001602052604081206103fa90610a58565b60006107d6813361098a565b6040514790339082156108fc029083906000818181858888f19350505050158015610805573d6000803e3d6000fd5b5060405181815233907f9493e5bbe4e8e0ac67284469a2d677403d0378a85a59e341d3abc433d0d9a20990602001610490565b600082815260208190526040902060010154610854813361098a565b6104c28383610a2a565b600061086a813361098a565b50600255565b6000828152602081815260408083206001600160a01b038516845290915290205460ff1661054f576000828152602081815260408083206001600160a01b03851684529091529020805460ff191660011790556108ca3390565b6001600160a01b0316816001600160a01b0316837f2f8788117e7eff1d82e926ec794901d17c78024a50270940304540a733656f0d60405160405180910390a45050565b60006107ac836001600160a01b038416610a62565b60006001600160e01b031982167f7965db0b0000000000000000000000000000000000000000000000000000000014806103fa57507f01ffc9a7000000000000000000000000000000000000000000000000000000006001600160e01b03198316146103fa565b6000828152602081815260408083206001600160a01b038516845290915290205460ff1661054f576109c6816001600160a01b03166014610ab1565b6109d1836020610ab1565b6040516020016109e2929190610f93565b60408051601f198184030181529082905262461bcd60e51b825261044c91600401611014565b610a128282610870565b60008281526001602052604090206104c2908261090e565b610a348282610c92565b60008281526001602052604090206104c29082610d11565b60006107ac8383610d26565b60006103fa825490565b6000818152600183016020526040812054610aa9575081546001818101845560008481526020808220909301849055845484825282860190935260409020919091556103fa565b5060006103fa565b60606000610ac0836002611047565b610acb906002610f43565b67ffffffffffffffff811115610ae357610ae3611066565b6040519080825280601f01601f191660200182016040528015610b0d576020820181803683370190505b5090507f300000000000000000000000000000000000000000000000000000000000000081600081518110610b4457610b4461107c565b60200101906001600160f81b031916908160001a9053507f780000000000000000000000000000000000000000000000000000000000000081600181518110610b8f57610b8f61107c565b60200101906001600160f81b031916908160001a9053506000610bb3846002611047565b610bbe906001610f43565b90505b6001811115610c43577f303132333435363738396162636465660000000000000000000000000000000085600f1660108110610bff57610bff61107c565b1a60f81b828281518110610c1557610c1561107c565b60200101906001600160f81b031916908160001a90535060049490941c93610c3c81611092565b9050610bc1565b5083156107ac5760405162461bcd60e51b815260206004820181905260248201527f537472696e67733a20686578206c656e67746820696e73756666696369656e74604482015260640161044c565b6000828152602081815260408083206001600160a01b038516845290915290205460ff161561054f576000828152602081815260408083206001600160a01b0385168085529252808320805460ff1916905551339285917ff6391f5c32d9c69d2a47ea670b442974b53935d1edc7fd64eb21e047a839171b9190a45050565b60006107ac836001600160a01b038416610d50565b6000826000018281548110610d3d57610d3d61107c565b9060005260206000200154905092915050565b60008181526001830160205260408120548015610e39576000610d74600183610f30565b8554909150600090610d8890600190610f30565b9050818114610ded576000866000018281548110610da857610da861107c565b9060005260206000200154905080876000018481548110610dcb57610dcb61107c565b6000918252602080832090910192909255918252600188019052604090208390555b8554869080610dfe57610dfe6110a9565b6001900381819060005260206000200160009055905585600101600086815260200190815260200160002060009055600193505050506103fa565b60009150506103fa565b600060208284031215610e5557600080fd5b81356001600160e01b0319811681146107ac57600080fd5b80356001600160a01b0381168114610e8457600080fd5b919050565b60008060408385031215610e9c57600080fd5b610ea583610e6d565b946020939093013593505050565b600060208284031215610ec557600080fd5b5035919050565b60008060408385031215610edf57600080fd5b82359150610eef60208401610e6d565b90509250929050565b60008060408385031215610f0b57600080fd5b50508035926020909101359150565b634e487b7160e01b600052601160045260246000fd5b818103818111156103fa576103fa610f1a565b808201808211156103fa576103fa610f1a565b600060018201610f6857610f68610f1a565b5060010190565b60005b83811015610f8a578181015183820152602001610f72565b50506000910152565b7f416363657373436f6e74726f6c3a206163636f756e7420000000000000000000815260008351610fcb816017850160208801610f6f565b7f206973206d697373696e6720726f6c65200000000000000000000000000000006017918401918201528351611008816028840160208801610f6f565b01602801949350505050565b6020815260008251806020840152611033816040850160208701610f6f565b601f01601f19169190910160400192915050565b600081600019048311821515161561106157611061610f1a565b500290565b634e487b7160e01b600052604160045260246000fd5b634e487b7160e01b600052603260045260246000fd5b6000816110a1576110a1610f1a565b506000190190565b634e487b7160e01b600052603160045260246000fdfea2646970667358221220f2cbccbdc6b6708e0b4fc10f13ba082dea9996a97c5cba5d8ec0624b3ff66edf64736f6c63430008100033010f49dc72a845b76d238e8719fe5704101e1d62cad5f18a9887ced2c4fcc43d",
  "devdoc": {
    "details": "This contract will be used to hold fee revenue, it also provides some helper function to top-up registered HOT_WALLETS",
    "kind": "dev",
    "methods": {
      "ethRequiredForHotWalletTopup()": {
        "returns": {
          "totalETH": "The total amount of ETH required"
        }
      },
      "getRoleAdmin(bytes32)": {
        "details": "Returns the admin role that controls `role`. See {grantRole} and {revokeRole}. To change a role's admin, use {_setRoleAdmin}."
      },
      "getRoleMember(bytes32,uint256)": {
        "details": "Returns one of the accounts that have `role`. `index` must be a value between 0 and {getRoleMemberCount}, non-inclusive. Role bearers are not sorted in any particular way, and their ordering may change at any point. WARNING: When using {getRoleMember} and {getRoleMemberCount}, make sure you perform all queries on the same block. See the following https://forum.openzeppelin.com/t/iterating-over-elements-on-enumerableset-in-openzeppelin-contracts/2296[forum post] for more information."
      },
      "getRoleMemberCount(bytes32)": {
        "details": "Returns the number of accounts that have `role`. Can be used together with {getRoleMember} to enumerate all bearers of a role."
      },
      "grantRole(bytes32,address)": {
        "details": "Grants `role` to `account`. If `account` had not been already granted `role`, emits a {RoleGranted} event. Requirements: - the caller must have ``role``'s admin role."
      },
      "hasRole(bytes32,address)": {
        "details": "Returns `true` if `account` has been granted `role`."
      },
      "paidFees(address,uint256)": {
        "params": {
          "_amount": "The fee amount",
          "_sender": "The user who has been deducted a fee"
        }
      },
      "renounceRole(bytes32,address)": {
        "details": "Revokes `role` from the calling account. Roles are often managed via {grantRole} and {revokeRole}: this function's purpose is to provide a mechanism for accounts to lose their privileges if they are compromised (such as when a trusted device is misplaced). If the calling account had been revoked `role`, emits a {RoleRevoked} event. Requirements: - the caller must be `account`."
      },
      "revokeRole(bytes32,address)": {
        "details": "Revokes `role` from `account`. If `account` had been granted `role`, emits a {RoleRevoked} event. Requirements: - the caller must have ``role``'s admin role."
      },
      "setWalletBalanceLimit(uint256)": {
        "params": {
          "_walletBalanceLimit": "The updated balance limit"
        }
      },
      "supportsInterface(bytes4)": {
        "details": "See {IERC165-supportsInterface}."
      }
    },
    "title": "Vault",
    "version": 1
  },
  "userdoc": {
    "kind": "user",
    "methods": {
      "claimFees()": {
        "notice": "Allows an admin to claim the ETH balance of the contract"
      },
      "ethRequiredForHotWalletTopup()": {
        "notice": "This allows us to easily see the total amount of ETH required to top-up all hot wallets. Used before calling the topUpHotWallets function"
      },
      "paidFees(address,uint256)": {
        "notice": "This function is called whenever fees have been deducted from a user and transffered into the Vault for holding"
      },
      "setWalletBalanceLimit(uint256)": {
        "notice": "Allows an admin to set the balance limit for wallets that have the HOT_WALLET role"
      },
      "topUpHotWallets()": {
        "notice": "Allows an admin to top up registered HOT_WALLETS, these wallets will be used for sponosoring transactions and this method allows updating all of them with a single contract call"
      }
    },
    "version": 1
  },
  "storageLayout": {
    "storage": [
      {
        "astId": 438,
        "contract": "contracts/Vault.sol:Vault",
        "label": "_roles",
        "offset": 0,
        "slot": "0",
        "type": "t_mapping(t_bytes32,t_struct(RoleData)433_storage)"
      },
      {
        "astId": 741,
        "contract": "contracts/Vault.sol:Vault",
        "label": "_roleMembers",
        "offset": 0,
        "slot": "1",
        "type": "t_mapping(t_bytes32,t_struct(AddressSet)2341_storage)"
      },
      {
        "astId": 5333,
        "contract": "contracts/Vault.sol:Vault",
        "label": "walletBalanceLimit",
        "offset": 0,
        "slot": "2",
        "type": "t_uint256"
      }
    ],
    "types": {
      "t_address": {
        "encoding": "inplace",
        "label": "address",
        "numberOfBytes": "20"
      },
      "t_array(t_bytes32)dyn_storage": {
        "base": "t_bytes32",
        "encoding": "dynamic_array",
        "label": "bytes32[]",
        "numberOfBytes": "32"
      },
      "t_bool": {
        "encoding": "inplace",
        "label": "bool",
        "numberOfBytes": "1"
      },
      "t_bytes32": {
        "encoding": "inplace",
        "label": "bytes32",
        "numberOfBytes": "32"
      },
      "t_mapping(t_address,t_bool)": {
        "encoding": "mapping",
        "key": "t_address",
        "label": "mapping(address => bool)",
        "numberOfBytes": "32",
        "value": "t_bool"
      },
      "t_mapping(t_bytes32,t_struct(AddressSet)2341_storage)": {
        "encoding": "mapping",
        "key": "t_bytes32",
        "label": "mapping(bytes32 => struct EnumerableSet.AddressSet)",
        "numberOfBytes": "32",
        "value": "t_struct(AddressSet)2341_storage"
      },
      "t_mapping(t_bytes32,t_struct(RoleData)433_storage)": {
        "encoding": "mapping",
        "key": "t_bytes32",
        "label": "mapping(bytes32 => struct AccessControl.RoleData)",
        "numberOfBytes": "32",
        "value": "t_struct(RoleData)433_storage"
      },
      "t_mapping(t_bytes32,t_uint256)": {
        "encoding": "mapping",
        "key": "t_bytes32",
        "label": "mapping(bytes32 => uint256)",
        "numberOfBytes": "32",
        "value": "t_uint256"
      },
      "t_struct(AddressSet)2341_storage": {
        "encoding": "inplace",
        "label": "struct EnumerableSet.AddressSet",
        "members": [
          {
            "astId": 2340,
            "contract": "contracts/Vault.sol:Vault",
            "label": "_inner",
            "offset": 0,
            "slot": "0",
            "type": "t_struct(Set)2040_storage"
          }
        ],
        "numberOfBytes": "64"
      },
      "t_struct(RoleData)433_storage": {
        "encoding": "inplace",
        "label": "struct AccessControl.RoleData",
        "members": [
          {
            "astId": 430,
            "contract": "contracts/Vault.sol:Vault",
            "label": "members",
            "offset": 0,
            "slot": "0",
            "type": "t_mapping(t_address,t_bool)"
          },
          {
            "astId": 432,
            "contract": "contracts/Vault.sol:Vault",
            "label": "adminRole",
            "offset": 0,
            "slot": "1",
            "type": "t_bytes32"
          }
        ],
        "numberOfBytes": "64"
      },
      "t_struct(Set)2040_storage": {
        "encoding": "inplace",
        "label": "struct EnumerableSet.Set",
        "members": [
          {
            "astId": 2035,
            "contract": "contracts/Vault.sol:Vault",
            "label": "_values",
            "offset": 0,
            "slot": "0",
            "type": "t_array(t_bytes32)dyn_storage"
          },
          {
            "astId": 2039,
            "contract": "contracts/Vault.sol:Vault",
            "label": "_indexes",
            "offset": 0,
            "slot": "1",
            "type": "t_mapping(t_bytes32,t_uint256)"
          }
        ],
        "numberOfBytes": "64"
      },
      "t_uint256": {
        "encoding": "inplace",
        "label": "uint256",
        "numberOfBytes": "32"
      }
    }
  }
}